:020000041000EA
:1000000000B5324B212058609868022188439860DF
:10001000D860186158612E4B002199600221596106
:100020000121F02299502B49196001219960352056
:1000300000F044F80222904214D00621196600F024
:1000400034F8196E01211966002018661A6600F04E
:100050002CF8196E196E196E052000F02FF8012189
:100060000842F9D1002199601B49196000215960AB
:100070001A491B48016001219960EB211966A021F2
:10008000196600F012F800219960164914480160C1
:100090000121996001BC002800D000471248134993
:1000A000086003C880F30888084703B5996A0420EC
:1000B0000142FBD001200142F8D103BD02B5186610
:1000C0001866FFF7F2FF186E186E02BD00000240BE
:1000D000000000180000070000035F00212200005C
:1000E000F4000018222000A00001001008ED00E03C
:1000F00000000000000000000000000074B24E7A12
:1001000000200420F7010010CB010010CD010010E9
:10011000C9010010C9010010C9010010C901001077
:10012000C9010010C9010010C9010010CF01001061
:10013000C9010010C9010010D1010010D301001045
:10014000C1010010C1010010C1010010C101001067
:10015000C1010010C1010010C1010010C101001057
:10016000C1010010C1010010C1010010C101001047
:10017000C1010010C1010010C1010010C101001037
:10018000C1010010C1010010C1010010C101001027
:10019000C1010010C1010010C1010010C101001017
:1001A000C1010010C1010010C1010010C101001007
:1001B000C1010010C1010010C1010010C1010010F7
:1001C000EFF30580103800BE00BE00BE00BE00BECA
:1001D00000BE00BEF2EB8871141F00103C1F00101F
:1001E0003802001090A31AE71E481F49086006C88D
:1001F00081F3088810471D480068002801D019487D
:10020000F3E70DA40ECC002902D000F012F8F9E7B4
:100210001749184A002000E001C19142FCD116495B
:100220008847164988471649884700BEFDE701C937
:1002300001C29A42FBD370473C1F0010C00000204F
:1002400040020020BC200010000004200000042018
:10025000BC2000100010042000100420000000004A
:10026000704700000000000008ED00E0000000D032
:10027000400200203C0600204D180010D50200105E
:1002800045180010F8B5C04606480749091A8B10F2
:10029000C90FC91810B5491003D0044B002B00D06A
:1002A000984710BD400200204002002000000000DE
:1002B000054B10B5002B03D00449054800E000BFF2
:1002C000FFF7E2FF10BDC04600000000000600205E
:1002D000D81D001010B501F0B1FBFA20C00000F0ED
:1002E000E1FC044C200001F0F9FBFA20800000F052
:1002F000D9FCF7E7D81D001010B54024074A830049
:100300009A181268C0005440C0222240044C1B19A5
:100310001A60044BC018416010BDC04604C00140C3
:1003200004D00140004001400FB400B5084883B03C
:1003300001F0D4FB049B002B07D005A91800019104
:1003400001F066FA034801F0C9FB012001F078FAD8
:10035000EC1D0010FC1D001070B58C461600EFF36C
:10036000108472B60F490B68002BFCD0BFF35F8F6F
:100370006346DB08C5180722C05C63461A400123A8
:1003800093401A000240034207D118432870BFF37C
:100390005F8F0A6084F3108870BD61463000FFF7FC
:1003A000C3FFC0462C0100D0044A1078431CDBB2C6
:1003B000172B00D9102313707047C04698010020F6
:1003C0000021044B044ABFF35F8F02C39342FAD16A
:1003D0007047C046000100D0800100D0084B094A98
:1003E0001360094A1360094A1360094A1360094AF5
:1003F0001360094A1360094A1360094A1360704781
:100400008080808000E400E004E400E008E400E094
:100410000CE400E010E400E014E400E018E400E084
:100420001CE400E01F2318401E3B8340002905D038
:10043000C021044A4900535013607047802201498B
:100440008B50FAE700E100E070B50D00EFF3108685
:1004500072B60F4A1368002BFCD0BFF35F8F0D4BB1
:1004600010309B6884001B590B4A934203D09D4275
:1004700001D000F099FF074B9B681D51BFF35F8FC0
:10048000BFF35F8F0022024B1A6086F3108870BDA5
:10049000240100D000ED00E0C1010010F0B5454698
:1004A000DE4657464E46E0B50D0083B0EFF31088A8
:1004B00072B6604A1368002BFCD0BFF35F8F5E4BAF
:1004C0005E499A68030010339F00D45999468C42C4
:1004D0003ED0AC424FD05A4EA21B2F2A38D8594B8F
:1004E0001A689C4613000122824013401F220240DA
:1004F00001209A4690406346802283469850BFF37D
:100500005F8FEFF305830193002B36D0994501D01F
:1005100000F04AFF012322009A439068854208D1E7
:1005200076E04B005B189B00F3189868854236D044
:100530001A00062151560029F3DA854254D0534659
:10054000002B27D0C02259463E4B520099501960CB
:10055000394B9B68DC51BFF35F8FBFF35F8F002285
:10056000344B1A6088F3108803B0F0BCBB46B24627
:10057000A946A046F0BD0C00EAE7220001339A43E9
:1005800090688542D5D106201056130000280ADA5B
:100590000C0031E0802359462A4AD150D8E7062082
:1005A0001856002821DB4200111889007518894669
:1005B000A9689960E979D97106216956997100296C
:1005C00024DBAD88F11A6D052D154D444919090537
:1005D0001D4D490D2943998013181C4A9B00117821
:1005E000F31899711070AAE713000199002914D12A
:1005F000FF3191711649918014490A789A71154A10
:100600009B1B5B415A43120D0A7098E71049E2E7C1
:100610000620105613000028C5DA0F4A0F49D21AD7
:10062000083A5002400D014399800D4952080A438F
:10063000DA8084E7240100D000ED00E0C101001061
:100640009C01002000E100E000E0FFFF38060020F0
:1006500001BDFFFFAAAA0000D601002000F0FFFFA5
:1006600000F8FFFF0123034370B59C46EFF30581BB
:10067000EFF3108572B6214A1368002BFCD0BFF34C
:100680005F8F1F4B04001F4AE41A64416243120D3E
:100690001D4C8900A66852B2765866451CD00621CA
:1006A000595691421CD012215956914222D01E21F6
:1006B0005956914220D02A2159560324914210D0F4
:1006C000124B19781A708171BFF35F8F00220B4BA8
:1006D0001A6085F3108870BDA3680D4C5C50EFE77D
:1006E00000246100091989005B18FF2199710949EB
:1006F0009980E5E70124F4E70224F2E7240100D021
:100700009C010020AAAA000000ED00E038060020AD
:10071000C101001001BDFFFF024BC9188900016033
:100720007047C0464000003470B5114C114DAC42CA
:100730000FD2FF262368002B0CD0FFF735FE0100F7
:100740002000FFF7E9FFA680BFF35F8F0834AC42BB
:10075000F0D370BDFFF728FE01002000FFF7DCFF9B
:100760002671BFF35F8F0834AC42E3D3F1E7C04694
:1007700038020020400200200A4B1968EFF3108075
:1007800072B60A68002AFCD0BFF35F8F1B68BFF304
:100790005F8F00221A6080F3108840BF0020002184
:1007A0007047C0462C060020F0B5DE4657464E4640
:1007B0004546E0B585B0EFF3058303221A40B34BFD
:1007C00091005F58012393409B4602925A46884607
:1007D000AF4B1A60AF4B03935B46AF4843630823AC
:1007E000FE5E002E37DABB881BB2002B00DBA4E0D4
:1007F000BB79002B00D0E5E00823F95E002920DB5F
:100800004B007A695B18DB00D3189D68DC686B1CB1
:1008100000D104E1A04801004144826A0B69AE1A8C
:100820009B1A9E4215D30123026A029883401A4202
:100830000FD0994800F03EFB8C4202DCCCD18542BF
:10084000CAD940BF05B0F0BCBB46B246A946A046D7
:10085000F0BD0D61EDE77A69730091469B19DB00ED
:1008600099444B469C68DD6800F024FB8D42BADC5D
:1008700000D1F6E0002D00DADBE04A464B46526933
:100880001B699246039A934200D1CCE04A46082164
:10089000785E5288000451461043984700900191B9
:1008A0000099019A0B00134300D1C2E013000A0023
:1008B000002B00DBD9E020002900801A99414B462B
:1008C0009860D96000229B5E002B00DA8BE75D0008
:1008D0007C69EA18D200A21800949468D268A246F3
:1008E0008A4200DD7FE702D1844200D97BE70824F9
:1008F000A4463B81BC44009C00972F006546B4464B
:100900003E0006E05E00F218D200A2189768D26896
:10091000BA468A4207DC00D1B4E0F318DB00E518E0
:10092000E35E002BEEDA66464A46009F13802E8077
:10093000BB881BB2002B00DA5AE73A69EFF310814B
:1009400072B61368002BFCD0BFF35F8F0123BE8803
:100950005B42BB8036B23B69BFF35F8F00221A60F7
:1009600081F31088002E00DA42E73B0008333A009A
:1009700099467D6973009B190824115FDB00484686
:10098000EB18002913DB9C680093A446DC6806E0A2
:10099000A34240D00023F95E3800002906DB4F0057
:1009A0007F18FF00EF19FB68A342F1DD009B068072
:1009B00000201E5E1980002EDCDA1700BB79002BA8
:1009C00000D119E70023BB710823F95E4B1C00D14D
:1009D00037E73D000835AC467C6903E084464B1C94
:1009E00000D109E74B005B18DB00E0180A00E15E6C
:1009F00043881BB2002BF1DA01256D42EE178560AA
:100A0000C66008257B5F9342E9D0634619803B8925
:100A100003803A81E3E7BB686345BBD9C6E7631C43
:100A200000D0F7E605E7534650461B699847002873
:100A300023D14B461B883A693B81EFF3108372B692
:100A400011680029FCD0BFF35F8F49467A880A807D
:100A50003A697E80BFF35F8F0021116083F31088B5
:100A6000C1E6844200D805E7BDE60B4800F022FA53
:100A7000009B019CC018614121E753460CCB0092BA
:100A800001930DE7824500D847E74CE718060020A0
:100A90003C700540A90700100040054070B52D4C82
:100AA0002569002D04D00A212B48FFF735FE70BDC3
:100AB0002A4E0321294800F0F3F9E660FFF774FCA1
:100AC000274B0322C018D02322701B061B6801216C
:100AD0006370244B8000A3600F2320610220638099
:100AE00063694942A18019800231198647311D830B
:100AF000585218315A5275325C39995218320131B4
:100B000099521832013199521832013199520835EF
:100B100018329D52023118329952183201319952CD
:100B2000183201319952183201319952183201317B
:100B300099521832013199520B4B0C49DC6001304B
:100B40003562FFF781FC01210320FFF76BFC084BA6
:100B50001D60A8E7E40100202C06002000400540AD
:100B600040000034FFFF100018060020A907001005
:100B70003860054070B582B00092019301000269AF
:100B8000EFF3108472B61368002BFCD0BFF35F8FB5
:100B90000223C85E0D6900283FDB4A694300160046
:100BA0001B18DB00D218F35A4B80BFF35F8F002372
:100BB0002B6084F31088069B1361079B5361009B95
:100BC000019C9360D460538801335B045B0C1D1C53
:100BD000002B20D0ACB20304558023430D69EFF302
:100BE000108C72B62C68002CFCD0BFF35F8F8C8801
:100BF000148088800A69BFF35F8F002010608CF337
:100C000010880A7801309040CA680849521810606C
:100C1000180002B070BD0125DCE7BFF35F8F002331
:100C20002B6084F31088013BF2E7C0463C200000B3
:100C300010B543890A1493421ADD53009B18426988
:100C4000DB00D3180469EFF3108C72B62268002A17
:100C5000FCD0BFF35F8F5A88090494B2090C8A4212
:100C600008D00369BFF35F8F00221A608CF31088ED
:100C7000002010BD094A22435A8001230269837172
:100C8000BFF35F8F002111608CF310880278044954
:100C90009340C268012052181360EAE70080FFFF0A
:100CA0003C200000F0B5C64600B582B0040000F05C
:100CB00009F9FA2206000F0020000023002192000B
:100CC00000F02CFD8019794104000D1E02DA012488
:100CD0002E4D644206267642F71736196F41AF4211
:100CE00014D811D000F0EEF832003B00121A8B41FC
:100CF000002B15DC002B46D02000290000F022F943
:100D000002B080BCB846F0BDA642EBD90026002751
:100D100000F0D8F832003B00121A8B41002BE9DDBD
:100D200000F0D0F832003B00121A8B41002B0ADB96
:100D300000230193164B3200009316483B00FFF747
:100D400019FF0130D8D000233900B0469C46124A22
:100D50001248536A994204D8966A4645CCD29942C1
:100D6000CAD10668EFF3108772B63368002BFCD047
:100D7000BFF35F8F0368BFF35F8F66461E6087F324
:100D8000108820BFE5E7002AB6D0C9E7FFFFFF7F44
:100D900079070010E4010020004005402C060020E7
:100DA000F0B5CE46474680B504000D0085B0EFF3A0
:100DB00005868946002E10D0364900204B6AAB428A
:100DC00006D38A6A5B1B591E8B41A24240411843DD
:100DD00005B0C0BCB946B046F0BD2F4FFB683A78AD
:100DE00098461800039200F065F8039A131D4246D6
:100DF0009B009B5822001B1A9C462B00121A8B4109
:100E00009E4210DC0DD020BF224A0020536A4B4581
:100E1000DED3926A5B1B591E8B41A24240411843AC
:100E2000D6E79445EFD900F04DF822002B00121AB6
:100E30008B41002B1BDB00230193184B22000093F6
:100E400038002B00FFF796FE002810DD114B5A6A80
:100E50004A451CD39B6AA34217D301003800FFF711
:100E6000E7FE0C4A0020536A4B45B1D3D1E7094A4B
:100E70000020536A4B45ABD30020926A5B1BA24211
:100E800040415A1E93411843A2E74A45E5D120BF8D
:100E9000E3E7C04600400540E40100207907001068
:100EA00010B5024A0248FFF757FA10BD001E0010A5
:100EB000C80500200300416A0A00986A596A8A42FC
:100EC000FAD17047034B596A0A00986A596A9142ED
:100ED000FAD170470040054070B505000E00184A71
:100EE000536A1900946A536A8B42FAD120001900A0
:100EF0002C00350024184D41AB4216D813D0104BAE
:100F00002A005B6A9D4203D90D494B6A9342FCD388
:100F1000934207D10A4A02E0516A994202D1916A8A
:100F2000A142F9D370BDA042E9D9054B5B6A1C0010
:100F30005A1CEFD0012201246442E5175242E3E734
:100F400000400540064A536A9942FCD807D1044B39
:100F500002E05A6A914202D19A6A9042F9D87047E7
:100F600000400540F8B5040006200D0000F06EF9C1
:100F7000002843D0364B3749E3185A1E934180224C
:100F80005B429B0D12049B059B18334A1360334A46
:100F9000136018000A689043FBD12D4B304AE318C8
:100FA00059424B4180215B0049000620995200F0D4
:100FB0004DF92900C00000F023FB0130C3091ED108
:100FC000402701226262A362266BF30722D4E36A00
:100FD000244B0620E51800232B60266300F036F929
:100FE0003900800000F00CFB7023E26A5A400E3397
:100FF00013402B601C4B23630323A364F8BD1B4ADF
:1010000093421DD900231A4A1A4F6262A362266BCB
:10101000F307DCD5184B144AE3181A60656AA36A13
:101020000620AD01ED1800F011F9144900F0E8FABE
:101030000100A80200F0E4FA0021FFF74DFFC6E727
:1010400040069A01800E17181A000300BAE7C0463E
:101050000080FCBF08C0004000E0004000F00040FD
:10106000300600202C10000001030000FEFF0000ED
:10107000FFFF0000C0FF3F00303000004E0E0000B8
:10108000F8B5DE464E4645465746E0B505008B4668
:1010900018000A99914600F0B3FA0A9B6C001E02F0
:1010A0006419304BA400E418636880469E4200D95E
:1010B00066602F1FFBB29A46012B2FD9C0238022D6
:1010C000294FAD009B0179591201E3181A600029DC
:1010D0001BD14B4622685B015340E0221340802223
:1010E0005201A21813605346012B2FD9802380226E
:1010F0009B01E31812011A60434666607B51F0BC05
:10110000BB46B246A946A046F8BD786900F078FA19
:10111000013043001B18033BFDD2DAE75B46012B8D
:10112000CCD1C02303229B01E3181A60023AA368C2
:101130001A42FCD04A46236852015A40E023134029
:1011400080225201A218084F1360AD0058460323B5
:10115000216841400B40136001228240A3681A427B
:10116000FCD0C3E700800040CC050020F0B5D64697
:101170004F464646440098462418324BA400E418D3
:1011800063688A469146C0B5FF2B02D880235B0076
:101190006360061FF6B2012E2FD9C02380222A4F8A
:1011A00085009B0179591201E3181A6000291BD1AF
:1011B0004B4622685B015340E022134080225201DB
:1011C000A2181360012E30D9802380229B01E318DE
:1011D00012011A6080235B00636043467B51E0BCD0
:1011E000BA46B146A846F0BD786900F009FA013068
:1011F00043001B18033BFDD2DAE75346012BCCD149
:10120000C02303229B01E3181A60023AA3681A4222
:10121000FCD04A46236852015A40E0231340802202
:101220005201A218084F136085005046032321681D
:1012300041400B40136001228240A3681A42FCD057
:10124000C2E7C04600800040CC050020014B800072
:10125000C0587047CC050020F0B5C646040000B564
:101260002348160098460D0000F0CAF9010030002E
:1012700000F0C6F94346069A1B04120313439C462A
:1012800023680600002B22DB1A4B1B48E218531E72
:101290009A4180235242120B9B011203D218174B22
:1012A0001A60174B1A60130001688B43FBD121228F
:1012B000144B2560E318A6601A602268002AFCDA45
:1012C0006246E26008221A6080BCB846F0BD3F2347
:1012D00022681340AB42D7D1A3681B051B0D834284
:1012E000D2D1EE22E368D20213406345CCD1EBE7C2
:1012F000001BB7000040FDBF08C0004000E00040F8
:1013000000F00040043000008023024A9B000B43A1
:10131000D362704700800540002310B50100988A11
:101320001B8B984710BDC046162310B501001888C6
:101330005B88984710BDC046F8B54746CE4680B595
:101340000F1E18D0142399460433040000250126EB
:1013500098464B461888434621681B88984701C425
:10136000431E984101350640AF42F2D13000C0BC67
:10137000B946B046F8BD0126F8E7C046AA23064A9A
:101380001B0113608D235B00D3600449044B19607B
:101390005368002BFCDA70470040024000B0FA00AE
:1013A000006002407047C04610B50148FEF7BCFF20
:1013B000241E001070B5074D074EB54209D2002417
:1013C000013E761BB608013608CD01349847B44279
:1013D000FAD170BD981D0010D41D0010054B064AAF
:1013E00006491A60064A074B1A6010000B689843BA
:1013F000FBD1704700E00040BFCDFBFE08C00040BD
:10140000FE7F3C0000F00040044BDB6C002B03D15E
:101410008022034BD2021A607047C0460000115070
:101420004C201150044A054B1A60054A1368DB0131
:101430008033FBD17047C046FFFFFF0100F0004042
:1014400008C000404022034B9A675A671A67DA6661
:101450007047C04600F0014010B5FEF7B1FF10BD67
:1014600070B52849284D294E6D1AAC102200302C39
:1014700000D930223000920000F0BCF9BC2D3DD8DC
:1014800023002A3B224A052B1DD9302075196D07F0
:10149000A446001BEB0F002D03DA611C8C46A10053
:1014A0007250C01AE3189B004108F318C900C9180C
:1014B0001A605A6008339942FAD1012303421DD0C1
:1014C000984360440400A300F250631C2F2C15D0F5
:1014D0009B00F250A31C2E2C10D09B00F250E31C5A
:1014E0002D2C0BD09B00F250231D2C2C06D09B00E2
:1014F000F250631D2B2C01D09B00F250054B9E60D7
:1015000070BDC04600010010C001001000000020A6
:10151000C101001000ED00E0002310B5294C82B09D
:10152000A367FFF72BFF0122274B1A60636C012B87
:10153000FCD10322254B1A60224A936B012BFCD16C
:10154000013300930121224A22480433FFF784FE2D
:10155000052301210093204A2048FFF77DFE002249
:10156000022104201E4BFFF701FE0022012105206D
:101570001C4BFFF7FBFD0022002107201A4BFFF751
:10158000F5FD002200210820174BFFF7EFFD802317
:10159000DB000093002200210920134BFFF770FDB0
:1015A0000022104B00210620FFF7E0FD0420FFF78A
:1015B0004DFE0E4900F024F801000020FFF7A4FEC4
:1015C00002B010BD008000403CB0004030B0004090
:1015D000002F685900800240008C864700C00240FE
:1015E000001BB70040597307006CDC0240420F003B
:1015F00001480421014B1847000200203913001054
:10160000114A936F9B0813D210665166002905D0CA
:10161000FFE7FFE7FFE7516F106F704704B5002841
:1016200001D00020C04300F0A7FB002104BDC0464C
:10163000F0B5146E556E576F166FFFF7E5FF146621
:10164000556657671667F0BD000000D0132370B5CC
:101650001D78012D19D014DD1F48FFF765FE060027
:101660001E48FFF761FE1E4C80223100200000F072
:10167000C1F8022D2DD01B48FFF74EFE1A4B186003
:1016800070BD1A4B164CA364F5E7184B144C23603D
:101690006360A360E36023616361A361E36123622C
:1016A0006362A362E36223636363A363E36323640C
:1016B0006364A364E36423656365A365E3652366EC
:1016C0006366A366E36623676367A367E367A36450
:1016D000D1E7064BA364CEE7534400005346000015
:1016E000C00300204C33000028060020F116001033
:1016F00007B5604601880A0A0230DF2AFAD1C9B26A
:10170000820804D3028840880004104300E0006887
:10171000014A5050039007BDC0030020514343438A
:10172000C9188C46110C83B24B4310B4040C6143AE
:1017300092B280B2504362431C041B0C001910BCCF
:1017400059411304120CC018514161447047000004
:10175000132310B51C781348FFF7E6FD012C0BD0BE
:1017600004DD01008022104800F044F80F48FFF724
:10177000D3FD0F4B186010BD0B4C0100542220000C
:1017800000F038F80B4B6365A365E3652366636679
:10179000A366E36623676367A367E3672362E36186
:1017A000E4E7C04653460000C00400204C3300006C
:1017B00028060020B917001007B5604601880A0AFC
:1017C0000230DF2AFAD1C9B2820804D302884088E5
:1017D0000004104300E00068014A5050039007BD28
:1017E000C004002001480421014B184710020020CA
:1017F00039130010014B5B681847000010020020ED
:1018000010B5002800D110BD00F01EF9FBE7C0465E
:1018100010B5094A0300146884B0002C08D00122D6
:1018200000910648524203A9A047012004B010BD10
:1018300000F054F90020F9E7FC0500200118001021
:1018400000BEFDE710B5FFF7FBFFC04670B5FFF720
:10185000B1FD074D074EB54209D20024013E761B6B
:10186000B608013608CD01349847B442FAD170BDAC
:10187000D41D0010D81D0010030010B50800110081
:101880001B68984710BDC046F8B5437D07000D00A2
:101890001600002B38D0002A1ADD0B780A2B18D03E
:1018A0000020012E09D0012421006B5C01340A2B99
:1018B0001AD0B442F8D1864203DD311A3B682818A9
:1018C0009847AD19013D2B780D3B5A4253413B756A
:1018D000F8BD037D002BE3D102210E483B689847F9
:1018E000012EEED00120DEE76B1E5B5C0D2BE0D0FD
:1018F000884203DA091A3B682818984705480221EC
:101900003B6898472000D4E70368110028009847F7
:10191000DEE7C046F41E0010F0B54646D6464F46F8
:10192000C0B582B090461C0006000D00FFF7CAFA51
:1019300000232F4A12184B41002B02DA01222D4BB3
:1019400052422D4908008A4600F01EFA81466B1C5F
:1019500003D1300000F0D4F90500002C27D0274F28
:10196000274B1C68002C18D04346002B21D1254B57
:10197000984602E02469002C0FD02368002BF9D090
:1019800043461B68002B01D09C42F3D120002A0063
:101990003100B8472469002CEFD14B46002B23D1EE
:1019A000280002B0E0BCBA46B146A846F0BD164FCA
:1019B000D6E7144B984602E02469002CEDD023684A
:1019C000002BF9D043461B68002B01D0A342F3D172
:1019D0002A0031002000B8476B460A222000DA7145
:1019E000D91D093AB847E7E7504600F0BDF9D7E7F7
:1019F00040420F00FFFFFF7F3802002089180010CF
:101A0000F4050020F8050020791800100A4A136830
:101A1000002B05D10CE01A001B691032002B07D0F7
:101A20008342F8D1002902D118691060196170470A
:101A30000029FCD01060FAE7F405002010B500F092
:101A400037F9012010BDC046F0B5CE46474680B5F7
:101A500083B06B460600DD1D2870FFF733FA0023C4
:101A6000194A12184B41002B02DA0122174B52423D
:101A700017490800894600F087F9164B80461C6814
:101A8000002C14D0144F02E02469002C0FD02368DE
:101A9000002BF9D03B68002B01D09C42F4D12000F0
:101AA00001222900FFF7F0FE2469002CEFD1434604
:101AB000002B05D1300003B0C0BCB946B046F0BD24
:101AC000484600F051F9F5E740420F00FFFFFF7F65
:101AD00038020020F4050020F805002070B504004D
:101AE00000F00EF901230100050001222000FFF79C
:101AF00013FF084B1C68002C06D06368002B05D030
:101B000098472469002CF8D1280070BD2469002C66
:101B1000F3D1F9E7F4050020F0B5002915DD0E4BEF
:101B20000D271A680D4B0E4CD3185D426B414518BA
:101B300020215B001E5F0478A64207D093691942FA
:101B4000FCD101301460A842F5D1F0BD936919426F
:101B5000FCD11760F2E7C046340600200080FCBFCD
:101B6000300600201F4B30B51B680D1E9C462ADD39
:101B7000441E102100201C4B1A689369194214D18D
:101B8000013093691942FCD1136823548542F4D182
:101B90006346002B07D050239363516B183B0B40D7
:101BA000124952181360280030BD6346002B07D03D
:101BB00050239363516B183B0B400C495218136030
:101BC0000028F1D10BE0002B09D05022064B1B68F6
:101BD0009A63596B183A0A4004495B181A6003204B
:101BE0004042E1E7C0050020340600203410000028
:101BF000064B10B51B68002B06D00021044A126862
:101C00009163044A1068984710BDC046C005002083
:101C100034060020C40500200822034B19688B6994
:101C20001A42FCD17047C0463406002070B51A4EE7
:101C30001A4B32680400D31858424341184D1433EC
:101C400018002B68002C02D0002B0FD070BD002B89
:101C5000FCD0060000219463FEF7E4FB300011493C
:101C6000FEF71CFC104B2C601C60EFE72C6004009E
:101C70000D4B19600B49FEF7E7FB01212000FEF731
:101C8000D1FB502233689A63596B183A0A400749CE
:101C90005B181A60DAE7C046340600200080FCBFFB
:101CA000C0050020F11B0010C40500203410000006
:101CB0000D4B10B51B780D4B0D4C1B780D4B0221B5
:101CC0001B780D4B00202360FEF716FB022101203C
:101CD000FEF712FBE12120684902FFF743F90121D9
:101CE0000648FFF793FE10BD381F0010341F001088
:101CF00034060020301F0010004003402002002066
:101D0000030084469B070BD00300032102E001334C
:101D10000B4206D01A78002AF9D16246981A704709
:101D2000030019680C4A0D488A188A4302420FD1F1
:101D30005968094A04338A188A43024208D159680B
:101D4000054A04338A188A430242F1D000E0013385
:101D50001A78002AFBD1E0E7FFFEFEFE808080803B
:101D6000F8B5C0460000000001B40248844601BC3A
:101D7000604700BF5901002001B40248844601BCFD
:101D8000604700BF8101002001B40248844601BCC5
:101D9000604700BFC1000020DD13001009140010CF
:101DA000F1150010E51700104D1600105117001026
:101DB00019150010251400104514001059140010B6
:101DC00029070010611400109D0A0010A5130010CF
:081DD000DD030010B102001058
:101DD8005541525420697320776F726B696E670D95
:101DE800000000000A2A2A2A2050414E4943202A8E
:101DF8002A2A0A000A000000486172647761726545
:101E080020616C61726D20256420616C726561646B
:101E18007920636C61696D656400000048617264D3
:101E2800206173736572740052656C656173650037
:101E3800626F6F74325F773235713038300000006E
:101E4800322E322E300000007069636F00000000EF
:101E5800756172745F626172656D6574616C0000B2
:101E68004A616E20203420323032360055415254B7
:101E780020737464696E0000554152542073746471
:101E88006F7574005541525420737464696E202F25
:101E9800207374646F75740006005250D3F0754255
:101EA800301E001006005250E182887F381E001054
:101EB80006005250ABB36053481E00100600525043
:101EC800BBFF3CB6501E001006005250861C030291
:101ED800581E0010060052505422A29D681E001081
:101EE80005005250DE65F468BC2000100D0A0000A1
:101EF8000600525053B4F4A18C1E00100800525032
:0C1F08001200000008005250921000006F
:101F1400A01E0010AC1E0010B81E0010C41E00103D
:101F2400D01E0010DC1E0010E81E00100C1F001054
:081F3400041F0010F81E00104C
:101F3C00F0B5C646160000B504001F000268EFF3AA
:101F4C00108172B61368002BFCD0BFF35F8F042393
:101F5C00E3562268002B2BDBBFF35F8F0020106051
:101F6C0081F31088D02212061278002552B29046C6
:101F7C009A420ED1002080BCB846F0BDBFF35F8FF3
:101F8C00156081F310883000390000F035F8002816
:101F9C00F0D12268EFF3108172B61368002BFCD0DD
:101FAC00BFF35F8F237922687F2BE7D9434602E08A
:101FBC00D0231B061B682371BFF35F8F00231360B4
:101FCC0081F310880120D6E70268EFF3108172B616
:101FDC001368002BFCD0BFF35F8FFF2303710368E2
:101FEC00BFF35F8F00221A6081F3108840BF7047E7
:101FFC007047C0460000000001B40248844601BC92
:10200C00604700BFA10D0010100000000000000090
:10201C0000000100000000000000000000000200B1
:10202C0000000000000000000000030000000000A1
:10203C00000000000000FF000000000001B548682F
:10204C0001318E460047704609380149884701BD69
:10205C0065060010000000000000000000000000F9
:10206C000000000000000000400200200000000002
:10207C00503300004C330000543300005233000046
:10208C004D5300004D430000533400004334000016
:10209C00191B0010191C0010651B00102D1C0010C2
:1020AC000000000000010000000000000000000023
:04000005100001E9FD
:00000001FF
